:020000040000FA
:0400000045EF00F0D8
:100008005A82D9CF03F0DACF04F0010E9EAC000E6D
:100018009DAC000EE8A013EF00F015EF00F022EF02
:1000280000F0C350C4CF01F0026A01C002F0016AB7
:1000380001100001D96F0250DA6F9E9C9DAA27EF2C
:1000480000F029EF00F03FEF00F09EAA2EEF00F03D
:1000580030EF00F03FEF00F0000E0001D225D96E1E
:10006800010ED321DA6EAECFDFFF010ED227000ECC
:10007800D323000ED42304C0DAFF03C0D9FF5A9259
:100088001100BCEF18F035EC19F0A1EC18F0000ED7
:100098000001B06F030EAF6F000EB26F030EB16FA9
:1000A800000ECB6F010ECA6F000ECD6F0E0ECC6F17
:1000B800000EB46F000EB36F000EC96F000EC86F4C
:1000C800000ECF6F140ECE6F000EC76F140EC66FE2
:1000D800B351B411D8A473EF00F075EF00F086EFB8
:1000E80000F09E0E686F000E696F880E6A6FFE0E34
:1000F8006B6F1BEC18F09E0E066E000E076E010E5D
:100108003DEC17F00001C805C911D8A48EEF00F026
:1001180090EF00F094EF00F0000ECB6F020ECA6F64
:10012800CBBFA0EF00F0CB5109E10F0ECA5DD8A0FC
:10013800A0EF00F0A2EF00F043EF03F0BCEF03F0F4
:10014800B50E686F000E696F4C0E6A6FFB0E6B6F11
:10015800000E6D6FDB0E6C6F000E6F6FDB0E6E6F37
:100168001BEC18F0B50E066E000E076E020E3DEC85
:1001780017F0000E0001C96F010EC86F89EF03F078
:10018800B50E686F000E696F5F0E6A6FFB0E6B6FBE
:10019800000E6D6FDB0E6C6F000E6F6FDB0E6E6FF7
:1001A8001BEC18F0B50E066E000E076E020E3DEC45
:1001B80017F089EF03F0B50E686F000E696F720EC5
:1001C8006A6FFB0E6B6F000E6D6FDB0E6C6F000EAF
:1001D8006F6FDB0E6E6F1BEC18F0B50E066E000E1F
:1001E800076E020E3DEC17F089EF03F0B50E686F4D
:1001F800000E696F850E6A6FFB0E6B6F000E6D6FD8
:10020800DB0E6C6F000E6F6FDB0E6E6F1BEC18F061
:10021800B50E066E000E076E020E3DEC17F089EF64
:1002280003F0B50E686F000E696F980E6A6FFB0ECB
:100238006B6F000E6D6FDB0E6C6F000E6F6FDB0E59
:100248006E6F1BEC18F0B50E066E000E076E020EF0
:100258003DEC17F089EF03F0B50E686F000E696F7B
:10026800AB0E6A6FFB0E6B6F000E6D6FDB0E6C6F63
:10027800000E6F6FDB0E6E6F1BEC18F0B50E066E7E
:10028800000E076E020E3DEC17F089EF03F0B50E75
:10029800686F000E696FBE0E6A6FFB0E6B6F000E03
:1002A8006D6FDB0E6C6F000E6F6FDB0E6E6F1BECED
:1002B80018F0B50E066E000E076E020E3DEC17F034
:1002C80089EF03F0B50E686F000E696FD10E6A6F83
:1002D800FB0E6B6F000E6D6FDB0E6C6F000E6F6F99
:1002E800DB0E6E6F1BEC18F0B50E066E000E076E77
:1002F800020E3DEC17F089EF03F0B50E686F000EA3
:10030800696FE40E6A6FFB0E6B6F000E6D6FDB0E8C
:100318006C6F000E6F6FDB0E6E6F1BEC18F0B50E76
:10032800066E000E076E020E3DEC17F089EF03F023
:10033800B50E686F000E696FF70E6A6FFB0E6B6F74
:10034800000E6D6FDB0E6C6F000E6F6FDB0E6E6F45
:100358001BEC18F0B50E066E000E076E020E3DEC93
:1003680017F089EF03F0B50E686F000E696F0A0E7B
:100378006A6FFC0E6B6F000E6D6FDB0E6C6F000EFC
:100388006F6FDB0E6E6F1BEC18F0B50E066E000E6D
:10039800076E020E3DEC17F089EF03F0B50E686F9B
:1003A800000E696F1D0E6A6FFC0E6B6F000E6D6F8D
:1003B800DB0E6C6F000E6F6FDB0E6E6F1BEC18F0B0
:1003C800B50E066E000E076E020E3DEC17F089EFB3
:1003D80003F0B50E686F000E696F300E6A6FFC0E81
:1003E8006B6F000E6D6FDB0E6C6F000E6F6FDB0EA8
:1003F8006E6F1BEC18F0B50E066E000E076E020E3F
:100408003DEC17F080A40BEF02F00DEF02F089EF3E
:1004180003F0929489EF03F0B50E686F000E696FD0
:10042800430E6A6FFC0E6B6F000E6D6FDB0E6C6F08
:10043800000E6F6FDB0E6E6F1BEC18F0B50E066EBC
:10044800000E076E020E3DEC17F00001C607D8A09B
:10045800C707000EC96F010EC86F80B436EF02F0EF
:1004680038EF02F089EF03F0000ECB6F000ECA6F71
:10047800B107D8A0B207000EB46F010EB36F000E1B
:10048800C96F000EC86F000EC76F140EC66F000E3E
:10049800CF6F140ECE6F92841AEF03F0200EA86F60
:1004A8009E0E066E000E076E010E3DEC17F034EF3F
:1004B80003F0200EA96F9E0E066E000E076E010E49
:1004C8003DEC17F034EF03F0200EAA6F9E0E066E77
:1004D800000E076E010E3DEC17F0150E00017B6F44
:1004E8004B0E7A6FBE0EE82EFED77A2FFCD77B2FE5
:1004F800FAD700F0A1EC18F00B0E00017B6F260E66
:100508007A6F5D0EE82EFED77A2FFCD77B2FFAD7AD
:1005180000D09E0E066E000E076E010E3DEC17F021
:100528000B0E00017B6F260E7A6F5D0EE82EFED74C
:100538007A2FFCD77B2FFAD700D0A1EC18F00B0E3E
:1005480000017B6F260E7A6F5D0EE82EFED77A2F9C
:10055800FCD77B2FFAD700D09E0E066E000E076ED2
:10056800010E3DEC17F00B0E00017B6F260E7A6F23
:100578005D0EE82EFED77A2FFCD77B2FFAD700D056
:10058800A1EC18F00B0E00017B6F260E7A6F5D0E42
:10059800E82EFED77A2FFCD77B2FFAD700D09E0EF5
:1005A800066E000E076E010E3DEC17F00B0E0001F3
:1005B8007B6F260E7A6F5D0EE82EFED77A2FFCD75A
:1005C8007B2FFAD700D07C0E0001686F000E696F90
:1005D800000E6A6FFE0E6B6F1BEC18F08D0E00019B
:1005E800686F000E696FEE0E6A6FFE0E6B6F1BEC84
:1005F80018F07C0E066E000E076E010E3DEC17F02B
:100608008D0E066E000E076E020E3DEC17F0520EB0
:1006180000017B6F2B0E7A6F000EE82EFED77A2F23
:10062800FCD77B2FFAD700F0EEEF06F0B1C07AF0D6
:10063800B2C07BF07B51000AD8B425EF03F034EF49
:1006480003F07A51000AD8B468EF02F0010AD8B46E
:100658005DEF02F0030AD8B452EF02F034EF03F072
:10066800150E00017B6F4B0E7A6FBE0EE82EFED77B
:100678007A2FFCD77B2FFAD700F089EF03F0CAC096
:100688007AF0CBC07BF07B51000AD8B44EEF03F070
:1006980089EF03F07A51010AD8B4A4EF00F0030AF5
:1006A800D8B4C4EF00F0010AD8B4DFEF00F0070AAD
:1006B800D8B4FAEF00F0010AD8B415EF01F0030A34
:1006C800D8B430EF01F0010AD8B44BEF01F00F0AAB
:1006D800D8B466EF01F0010AD8B481EF01F0030A3B
:1006E800D8B49CEF01F0010AD8B4B7EF01F0070ABB
:1006F800D8B4D2EF01F0010AD8B4EDEF01F0030A43
:10070800D8B410EF02F089EF03F00001CFBF98EFE3
:1007180003F0CF5107E1020ECE5DD8B096EF03F09B
:1007280098EF03F09AEF03F0B4EF03F09C0E00018A
:100738007A6FD70EE82EFED77A2FFCD70001CE07A6
:10074800D8A0CF07CFBFB4EF03F0CF5107E1020E17
:10075800CE5DD8B0B2EF03F0B4EF03F09AEF03F038
:10076800C6C0CEF0C7C0CFF0CA4BCB2B94EF00F079
:10077800C805C911D8A4C3EF03F0C5EF03F0C9EF4A
:1007880003F0000ECD6F0D0ECC6FCDBFD6EF03F08A
:10079800CD5106E1CC05D8B0D4EF03F0D6EF03F085
:1007A8006AEF06F0E4EF06F0B50E686F000E696FA9
:1007B8004C0E6A6FFB0E6B6F000E6D6FDB0E6C6F6D
:1007C800000E6F6FDB0E6E6F1BEC18F0B50E066E29
:1007D800000E076E020E3DEC17F00001C607D8A008
:1007E800C707000EC96F010EC86F82B0FEEF03F095
:1007F80000EF04F0B0EF06F0000ECD6F0F0ECC6FD7
:10080800AF07D8A0B007000EB46F010EB36F000E8B
:10081800C96F000EC86F000EC76F140EC66F000EAA
:10082800CF6F140ECE6F9480D5EF04F0200EA36F17
:100838009E0E066E000E076E010E3DEC17F0EFEFF0
:1008480004F0200EA26F9E0E066E000E076E010EBB
:100858003DEC17F0EFEF04F0200EA16F9E0E066E30
:10086800000E076E010E3DEC17F0150E00017B6FB0
:100878004B0E7A6FBE0EE82EFED77A2FFCD77B2F51
:10088800FAD700F0A1EC18F00B0E00017B6F260ED2
:100898007A6F5D0EE82EFED77A2FFCD77B2FFAD71A
:1008A80000D09E0E066E000E076E010E3DEC17F08E
:1008B8000B0E00017B6F260E7A6F5D0EE82EFED7B9
:1008C8007A2FFCD77B2FFAD700D0A1EC18F00B0EAB
:1008D80000017B6F260E7A6F5D0EE82EFED77A2F09
:1008E800FCD77B2FFAD700D09E0E066E000E076E3F
:1008F800010E3DEC17F00B0E00017B6F260E7A6F90
:100908005D0EE82EFED77A2FFCD77B2FFAD700D0C2
:10091800A1EC18F00B0E00017B6F260E7A6F5D0EAE
:10092800E82EFED77A2FFCD77B2FFAD700D09E0E61
:10093800066E000E076E010E3DEC17F00B0E00015F
:100948007B6F260E7A6F5D0EE82EFED77A2FFCD7C6
:100958007B2FFAD700D07C0E0001686F000E696FFC
:10096800000E6A6FFE0E6B6F1BEC18F08D0E000107
:10097800686F000E696FFE0E6A6FFE0E6B6F1BECE0
:1009880018F07C0E066E000E076E010E3DEC17F097
:100998008D0E066E000E076E020E3DEC17F00BEF83
:1009A80003F0AFC07AF0B0C07BF07B51000AD8B436
:1009B800E0EF04F0EFEF04F07A51000AD8B430EF1A
:1009C80004F0010AD8B425EF04F0030AD8B41AEFEA
:1009D80004F0EFEF04F0150E00017B6F4B0E7A6FF9
:1009E800BE0EE82EFED77A2FFCD77B2FFAD700F061
:1009F800B0EF06F0B50E686F000E696F5F0E6A6F94
:100A0800FB0E6B6F000E6D6FDB0E6C6F000E6F6F61
:100A1800DB0E6E6F1BEC18F0B50E066E000E076E3F
:100A2800020E3DEC17F082A01CEF05F01EEF05F05A
:100A3800B0EF06F09490B0EF06F0B50E686F000EB8
:100A4800696F720E6A6FFB0E6B6F000E6D6FDB0EB7
:100A58006C6F000E6F6FDB0E6E6F1BEC18F0B50E2F
:100A6800066E000E076E020E3DEC17F0B0EF06F0B2
:100A7800B50E686F000E696F850E6A6FFB0E6B6F9F
:100A8800000E6D6FDB0E6C6F000E6F6FDB0E6E6FFE
:100A98001BEC18F0B50E066E000E076E020E3DEC4C
:100AA80017F0B0EF06F0B50E686F000E696F980E7C
:100AB8006A6FFB0E6B6F000E6D6FDB0E6C6F000EB6
:100AC8006F6FDB0E6E6F1BEC18F0B50E066E000E26
:100AD800076E020E3DEC17F0B0EF06F0B50E686F2A
:100AE800000E696FAB0E6A6FFB0E6B6F000E6D6FB9
:100AF800DB0E6C6F000E6F6FDB0E6E6F1BEC18F069
:100B0800B50E066E000E076E020E3DEC17F0B0EF44
:100B180006F0B50E686F000E696FBE0E6A6FFB0EA9
:100B28006B6F000E6D6FDB0E6C6F000E6F6FDB0E60
:100B38006E6F1BEC18F0B50E066E000E076E020EF7
:100B48003DEC17F0B0EF06F0B50E686F000E696F58
:100B5800D10E6A6FFB0E6B6F000E6D6FDB0E6C6F44
:100B6800000E6F6FDB0E6E6F1BEC18F0B50E066E85
:100B7800000E076E020E3DEC17F0B0EF06F0B50E52
:100B8800686F000E696FE40E6A6FFB0E6B6F000EE4
:100B98006D6FDB0E6C6F000E6F6FDB0E6E6F1BECF4
:100BA80018F0B50E066E000E076E020E3DEC17F03B
:100BB800B0EF06F0B50E686F000E696FF70E6A6F3A
:100BC800FB0E6B6F000E6D6FDB0E6C6F000E6F6FA0
:100BD800DB0E6E6F1BEC18F0B50E066E000E076E7E
:100BE800020E3DEC17F0B0EF06F0B50E686F000E80
:100BF800696F0A0E6A6FFC0E6B6F000E6D6FDB0E6D
:100C08006C6F000E6F6FDB0E6E6F1BEC18F0B50E7D
:100C1800066E000E076E020E3DEC17F0B0EF06F000
:100C2800B50E686F000E696F1D0E6A6FFC0E6B6F54
:100C3800000E6D6FDB0E6C6F000E6F6FDB0E6E6F4C
:100C48001BEC18F0B50E066E000E076E020E3DEC9A
:100C580017F0B0EF06F0B50E686F000E696F300E32
:100C68006A6FFC0E6B6F000E6D6FDB0E6C6F000E03
:100C78006F6FDB0E6E6F1BEC18F0B50E066E000E74
:100C8800076E020E3DEC17F0B0EF06F0B50E686F78
:100C9800000E696F430E6A6FFC0E6B6F000E6D6F6E
:100CA800DB0E6C6F000E6F6FDB0E6E6F1BEC18F0B7
:100CB800B50E066E000E076E020E3DEC17F0000E24
:100CC8000001C96F010EC86FB0EF06F0CCC07AF012
:100CD800CDC07BF07B51000AD8B475EF06F0B0EFB9
:100CE80006F07A51010AD8B4D8EF03F0030AD8B451
:100CF800FEEF04F0010AD8B421EF05F0070AD8B4D2
:100D08003CEF05F0010AD8B457EF05F0030AD8B450
:100D180072EF05F0010AD8B48DEF05F00F0AD8B4C8
:100D2800A8EF05F0010AD8B4C3EF05F0030AD8B458
:100D3800DEEF05F0010AD8B4F9EF05F0070AD8B4D8
:100D480014EF06F0010AD8B42FEF06F0030AD8B45E
:100D58004AEF06F0B0EF06F00001CFBFBFEF06F094
:100D6800CF5107E1020ECE5DD8B0BDEF06F0BFEF60
:100D780006F0C1EF06F0DBEF06F09C0E00017A6F7B
:100D8800D70EE82EFED77A2FFCD70001CE07D8A0C1
:100D9800CF07CFBFDBEF06F0CF5107E1020ECE5DE4
:100DA800D8B0D9EF06F0DBEF06F0C1EF06F0C6C009
:100DB800CEF0C7C0CFF0CC07D8A0CD07C9EF03F05D
:100DC800000ECB6F010ECA6F000ECD6F0E0ECC6FEA
:100DD8006CEF00F0120011EC19F0A1EC18F0130EF2
:100DE8000001686FFB0E696FEAEC18F0EC0E000169
:100DF800686F000E696FCC0E6A6FFE0E6B6F1BEC8E
:100E080018F0EC0E066E000E076E010E3DEC17F0A2
:100E1800DB0E0001686F000E696F330E6A6FFE0EFD
:100E28006B6F1BEC18F0DB0E066E000E076E020EE1
:100E38003DEC17F00001D251D311D411D8B427EFEB
:100E480007F029EF07F0C0EF09F0BB0E686FFF0E3F
:100E5800696FEAEC18F0000E0001806F000E7F6FDA
:100E6800A0EF09F0D60E686FFF0E696FEAEC18F074
:100E78009DEF09F0960E686FFF0E696FEAEC18F0A7
:100E88009DEF09F0E30E686FFE0E696FEAEC18F04B
:100E98009DEF09F08B0E686FFF0E696FEAEC18F092
:100EA8009DEF09F0820E686FFF0E696FEAEC18F08B
:100EB8009DEF09F0E80E686FFF0E696FEAEC18F015
:100EC8009DEF09F07E0E686FFF0E696FEAEC18F06F
:100ED8009DEF09F0A30E686FFF0E696FEAEC18F03A
:100EE8009DEF09F08D0E686FFF0E696FEAEC18F040
:100EF8009DEF09F0480E686FFF0E696FEAEC18F075
:100F08009DEF09F0D40E686FFF0E696FEAEC18F0D8
:100F18009DEF09F0F30E686FFF0E696FEAEC18F0A9
:100F28009DEF09F0320E686FFF0E696FEAEC18F05A
:100F38009DEF09F0800E686FFF0E696FEAEC18F0FC
:100F48009DEF09F0300E686FFF0E696FEAEC18F03C
:100F58009DEF09F0DD0E686FFF0E696FEAEC18F07F
:100F68009DEF09F0D20E686FFF0E696FEAEC18F07A
:100F78009DEF09F0E50E686FFE0E696FEAEC18F058
:100F88009DEF09F0980E686FFF0E696FEAEC18F094
:100F98009DEF09F0340E686FFF0E696FEAEC18F0E8
:100FA8009DEF09F0640E686FFF0E696FEAEC18F0A8
:100FB8009DEF09F06F0E686FFF0E696FEAEC18F08D
:100FC8009DEF09F0C90E686FFF0E696FEAEC18F023
:100FD8009DEF09F0620E686FFF0E696FEAEC18F07A
:100FE8009DEF09F0C70E686FFF0E696FEAEC18F005
:100FF8009DEF09F0890E686FFF0E696FEAEC18F033
:101008009DEF09F02C0E686FFF0E696FEAEC18F07F
:101018009DEF09F0390E686FFF0E696FEAEC18F062
:101028009DEF09F0460E686FFF0E696FEAEC18F045
:101038009DEF09F0530E686FFF0E696FEAEC18F028
:101048009DEF09F06D0E686FFF0E696FEAEC18F0FE
:101058009DEF09F0AE0E686FFF0E696FEAEC18F0AD
:101068009DEF09F0A10E686FFF0E696FEAEC18F0AA
:101078009DEF09F0940E686FFF0E696FEAEC18F0A7
:101088009DEF09F0870E686FFF0E696FEAEC18F0A4
:101098009DEF09F07A0E686FFF0E696FEAEC18F0A1
:1010A8009DEF09F0DD0E686FFE0E696FEAEC18F02F
:1010B8009DEF09F00E0E686FFF0E696FEAEC18F0ED
:1010C8009DEF09F0600E686FFF0E696FEAEC18F08B
:1010D8009DEF09F01D0E686FFF0E696FEAEC18F0BE
:1010E8009DEF09F0370E686FFF0E696FEAEC18F094
:1010F8009DEF09F0000E7F25D96E010E8021DA6E72
:10110800DF507A6F7B6B7B51000AD8B48EEF08F002
:101118009DEF09F07A51200AD8B476EF08F0010A59
:10112800D8B466EF08F00D0AD8B45EEF08F0020AEA
:10113800D8B456EF08F01E0AD8B406EF08F0010A32
:10114800D8B40EEF08F0030AD8B416EF08F0010A75
:10115800D8B41EEF08F0070AD8B426EF08F0010A41
:10116800D8B42EEF08F0030AD8B436EF08F0010A15
:10117800D8B43EEF08F00F0AD8B446EF08F0010AD9
:10118800D8B44EEF08F0060AD8B46EEF08F07E0A1D
:10119800D8B436EF07F0030AD8B43EEF07F0010AD7
:1011A800D8B446EF07F0070AD8B44EEF07F0010AA3
:1011B800D8B456EF07F0030AD8B45EEF07F0010A77
:1011C800D8B466EF07F00F0AD8B46EEF07F0010A3B
:1011D800D8B476EF07F0030AD8B47EEF07F0010A17
:1011E800D8B486EF07F0070AD8B48EEF07F0010AE3
:1011F800D8B496EF07F0030AD8B49EEF07F0010AB7
:10120800D8B4A6EF07F01F0AD8B4AEEF07F0010A6A
:10121800D8B4B6EF07F0030AD8B4BEEF07F0010A56
:10122800D8B4C6EF07F0070AD8B4CEEF07F0010A22
:10123800D8B4D6EF07F0030AD8B4DEEF07F0010AF6
:10124800D8B4E6EF07F00F0AD8B4EEEF07F0010ABA
:10125800D8B4F6EF07F0030AD8B4FEEF07F03B0A5C
:10126800D8B436EF07F0030AD8B43EEF07F0010A06
:10127800D8B446EF07F0070AD8B44EEF07F0010AD2
:10128800D8B456EF07F0030AD8B45EEF07F0010AA6
:10129800D8B466EF07F00F0AD8B46EEF07F0010A6A
:1012A800D8B476EF07F0030AD8B47EEF07F0010A46
:1012B800D8B486EF07F0070AD8B48EEF07F0010A12
:1012C800D8B496EF07F0030AD8B49EEF07F0010AE6
:1012D800D8B4A6EF07F01F0AD8B4AEEF07F0010A9A
:1012E800D8B4B6EF07F0030AD8B4BEEF07F0010A86
:1012F800D8B4C6EF07F0070AD8B4CEEF07F0010A52
:10130800D8B4D6EF07F0030AD8B4DEEF07F0010A25
:10131800D8B4E6EF07F00F0AD8B4EEEF07F0010AE9
:10132800D8B4F6EF07F0030AD8B4FEEF07F09DEF44
:1013380009F000017F4B802B7FC07AF080C07BF0E2
:101348007C6B7BBF7C69D2517A5DD3517B59D45178
:101358007C59D8A0B2EF09F0B4EF09F07EEF08F09D
:10136800000ED26F000ED36F000ED46F320E686F6E
:10137800FB0E696FEAEC18F080A4C5EF09F0C7EF1F
:1013880009F0FAEF06F0090E00017B6F1E0E7A6F66
:10139800E40EE82EFED77A2FFCD77B2FFAD700F081
:1013A8001200D3EC18F0A1EC18F0C282030E000171
:1013B8007B6F080E7A6F770EE82EFED77A2FFCD750
:1013C8007B2FFAD77C0E0001686F000E696F560EEE
:1013D8006A6FFC0E6B6FD9C06CF0DAC06DF01BEC55
:1013E80018F07C0E066E000E076E010E3DEC17F02D
:1013F8000001DA5109E1020ED95DD8A006EF0AF022
:1014080008EF0AF026EF0AF0DA5107E1410ED95D3C
:10141800D8B011EF0AF013EF0AF026EF0AF08D0E9C
:10142800686F000E696F680E6A6FFC0E6B6F1BECBD
:1014380018F08D0E066E000E076E020E3DEC17F0CA
:1014480082EF0CF0DA5109E1420ED95DD8A02FEFF6
:101458000AF031EF0AF04FEF0AF0DA5107E1820E95
:10146800D95DD8B03AEF0AF03CEF0AF04FEF0AF036
:101478008D0E686F000E696F790E6A6FFC0E6B6FC8
:101488001BEC18F08D0E066E000E076E020E3DEC7A
:1014980017F082EF0CF0DA5109E1830ED95DD8A07C
:1014A80058EF0AF05AEF0AF078EF0AF0DA5107E13C
:1014B800C30ED95DD8B063EF0AF065EF0AF078EF94
:1014C8000AF08D0E686F000E696F8A0E6A6FFC0E47
:1014D8006B6F1BEC18F08D0E066E000E076E020E79
:1014E8003DEC17F082EF0CF0DA5109E1C40ED95D3A
:1014F800D8A081EF0AF083EF0AF0A1EF0AF0040EFA
:10150800D95D010EDA59D8B08CEF0AF08EEF0AF0E7
:10151800A1EF0AF08D0E686F000E696F9B0E6A6F5F
:10152800FC0E6B6F1BEC18F08D0E066E000E076E2E
:10153800020E3DEC17F082EF0CF0050ED95D010E9E
:10154800DA59D8A0AAEF0AF0ACEF0AF0CAEF0AF00D
:10155800450ED95D010EDA59D8B0B5EF0AF0B7EFEC
:101568000AF0CAEF0AF08D0E686F000E696FAC0EB4
:101578006A6FFC0E6B6F1BEC18F08D0E066E000E7A
:10158800076E020E3DEC17F082EF0CF0460ED95DA7
:10159800010EDA59D8A0D3EF0AF0D5EF0AF0F3EF2D
:1015A8000AF0860ED95D010EDA59D8B0DEEF0AF0DE
:1015B800E0EF0AF0F3EF0AF08D0E686F000E696F26
:1015C800BD0E6A6FFC0E6B6F1BEC18F08D0E066E6D
:1015D800000E076E020E3DEC17F082EF0CF0870E3E
:1015E800D95D010EDA59D8A0FCEF0AF0FEEF0AF037
:1015F8001CEF0BF0C70ED95D010EDA59D8B007EF12
:101608000BF009EF0BF01CEF0BF08D0E686F000E5E
:10161800696FCE0E6A6FFC0E6B6F1BEC18F08D0EA7
:10162800066E000E076E020E3DEC17F082EF0CF00E
:10163800C80ED95D010EDA59D8A025EF0BF027EFB7
:101648000BF045EF0BF0080ED95D020EDA59D8B051
:1016580030EF0BF032EF0BF045EF0BF08D0E686FAB
:10166800000E696FDF0E6A6FFC0E6B6F1BEC18F0D3
:101678008D0E066E000E076E020E3DEC17F082EF1F
:101688000CF0090ED95D020EDA59D8A04EEF0BF016
:1016980050EF0BF06EEF0BF0490ED95D020EDA59E0
:1016A800D8B059EF0BF05BEF0BF06EEF0BF08D0E2F
:1016B800686F000E696FF00E6A6FFC0E6B6F1BECA3
:1016C80018F08D0E066E000E076E020E3DEC17F038
:1016D80082EF0CF04A0ED95D020EDA59D8A077EFE6
:1016E8000BF079EF0BF097EF0BF08A0ED95D020E35
:1016F800DA59D8B082EF0BF084EF0BF097EF0BF0CC
:101708008D0E686F000E696F010E6A6FFD0E6B6FAC
:101718001BEC18F08D0E066E000E076E020E3DECE7
:1017280017F082EF0CF08B0ED95D020EDA59D8A0B3
:10173800A0EF0BF0A2EF0BF0C0EF0BF0CB0ED95DD2
:10174800020EDA59D8B0ABEF0BF0ADEF0BF0C0EFEB
:101758000BF08D0E686F000E696F340E6A6FFD0E08
:101768006B6F1BEC18F08D0E066E000E076E020EE6
:101778003DEC17F082EF0CF0CC0ED95D020EDA5971
:10178800D8A0C9EF0BF0CBEF0BF0E9EF0BF00C0E84
:10179800D95D030EDA59D8B0D4EF0BF0D6EF0BF0C1
:1017A800E9EF0BF08D0E686F000E696FDE0E6A6F41
:1017B800FD0E6B6F1BEC18F08D0E066E000E076E9B
:1017C800020E3DEC17F082EF0CF00D0ED95D030E02
:1017D800DA59D8A0F2EF0BF0F4EF0BF012EF0CF09F
:1017E8004D0ED95D030EDA59D8B0FDEF0BF0FFEFBF
:1017F8000BF012EF0CF08D0E686F000E696F220E61
:101808006A6FFE0E6B6F1BEC18F08D0E066E000EE5
:10181800076E020E3DEC17F082EF0CF04E0ED95D0C
:10182800030EDA59D8A01BEF0CF01DEF0CF03BEFBC
:101838000CF08E0ED95D030EDA59D8B026EF0CF0F5
:1018480028EF0CF03BEF0CF08D0E686F000E696FFF
:10185800440E6A6FFE0E6B6F1BEC18F08D0E066E51
:10186800000E076E020E3DEC17F082EF0CF08F0EA3
:10187800D95D030EDA59D8A044EF0CF046EF0CF00E
:1018880064EF0CF0CF0ED95D030EDA59D8B04FEFE4
:101898000CF051EF0CF064EF0CF08D0E686F000E39
:1018A800696F770E6A6FFE0E6B6F1BEC18F08D0E6A
:1018B800066E000E076E020E3DEC17F082EF0CF07C
:1018C800D00ED95D030EDA59D8A06DEF0CF06FEF8A
:1018D8000CF082EF0CF08D0E686F000E696F990E98
:1018E8006A6FFE0E6B6F1BEC18F08D0E066E000E05
:1018F800076E020E3DEC17F082EF0CF080A487EF24
:101908000CF089EF0CF0D9EF09F0090E00017B6F9C
:101918001E0E7A6FE40EE82EFED77A2FFCD77B2FA7
:10192800FAD700F012002BEC19F0000E0101B96F84
:10193800010EB86FA1EC18F080A8A5EF0CF0A7EF86
:101948000CF0BCEF0CF00101B84BB92BB9BFB6EFE6
:101958000CF0B95109E1090EB85DD8A0B6EF0CF04A
:10196800B8EF0CF0BCEF0CF0000EB96F080EB86FB2
:1019780082A0C1EF0CF0C3EF0CF051EF0EF00101A3
:10198800B807D8A0B907B9BFD4EF0CF0B95106E130
:10199800B805D8B0D2EF0CF0D4EF0CF051EF0EF040
:1019A800000EB96F010EB86F51EF0EF0630E686F3D
:1019B800010E696F660E6A6FFE0E6B6F1BEC18F0F6
:1019C800630E066E010E076E010E3DEC17F0850ED4
:1019D8000001686F010E696F450E6A6FFD0E6B6F2F
:1019E8001BEC18F0850E066E010E076E020E3DEC1C
:1019F80017F080A602EF0DF004EF0DF080EF0EF067
:101A08000B0E0001D16F260ED06F5D0EE82EFED7AB
:101A1800D02FFCD7D12FFAD700D039EC14F080EFB3
:101A28000EF0630E686F010E696F550E6A6FFE0E39
:101A38006B6F1BEC18F0630E066E010E076E010E3D
:101A48003DEC17F0850E0001686F010E696F560EA8
:101A58006A6FFD0E6B6F1BEC18F0850E066E010E9B
:101A6800076E020E3DEC17F080A63DEF0DF03FEF3C
:101A78000DF080EF0EF0EFEC06F080EF0EF0850E23
:101A8800686F010E696F560E6A6FFD0E6B6F1BEC67
:101A980018F0850E066E010E076E010E3DEC17F06C
:101AA800960E0001686F010E696F780E6A6FFD0E61
:101AB8006B6F1BEC18F0960E066E010E076E020E89
:101AC8003DEC17F080A66BEF0DF06DEF0DF080EF99
:101AD8000EF03FEF0DF0850E686F010E696F450E31
:101AE8006A6FFD0E6B6F1BEC18F0850E066E010E0B
:101AF800076E010E3DEC17F0960E0001686F010E9F
:101B0800696F890E6A6FFD0E6B6F1BEC18F0960EED
:101B1800066E010E076E020E3DEC17F080A697EFD9
:101B28000DF099EF0DF080EF0EF010EC16F080EF4D
:101B38000EF0960E686F010E696F890E6A6FFD0EC2
:101B48006B6F1BEC18F0960E066E010E076E010EF9
:101B58003DEC17F0A70E0001686F010E696F120EB9
:101B68006A6FFD0E6B6F1BEC18F0A70E066E010E68
:101B7800076E020E3DEC17F080A6C5EF0DF0C7EF1B
:101B88000DF080EF0EF099EF0DF0960E686F010ED4
:101B9800696F780E6A6FFD0E6B6F1BEC18F0960E6E
:101BA800066E010E076E010E3DEC17F0A70E000140
:101BB800686F010E696F230E6A6FFD0E6B6F1BEC69
:101BC80018F0A70E066E010E076E020E3DEC17F018
:101BD80080A6F1EF0DF0F3EF0DF080EF0EF0D5ECED
:101BE80009F080EF0EF0A70E686F010E696F230EE3
:101BF8006A6FFD0E6B6F1BEC18F0A70E066E010ED8
:101C0800076E010E3DEC17F0740E0001686F010EAF
:101C1800696FAA0E6A6FFE0E6B6F1BEC18F0740EDC
:101C2800066E010E076E020E3DEC17F080A61FEF40
:101C38000EF021EF0EF080EF0EF0F3EF0DF0A70E8F
:101C4800686F010E696F120E6A6FFD0E6B6F1BECE9
:101C580018F0A70E066E010E076E010E3DEC17F088
:101C6800740E0001686F010E696FBB0E6A6FFE0E7D
:101C78006B6F1BEC18F0740E066E010E076E020EE9
:101C88003DEC17F080A64BEF0EF04DEF0EF080EF15
:101C98000EF047EC00F080EF0EF0B8C1D0F0B9C1FB
:101CA800D1F00001D151000AD8B45DEF0EF080EFF9
:101CB8000EF0D051010AD8B4DAEF0CF0030AD8B408
:101CC80015EF0DF0010AD8B443EF0DF0070AD8B4A8
:101CD8006FEF0DF0010AD8B49DEF0DF0030AD8B4E8
:101CE800C9EF0DF0010AD8B4F7EF0DF00F0AD8B418
:101CF80023EF0EF080EF0EF080A485EF0EF087EF53
:101D08000EF08CEF0EF0000E0101B96F010EB86FE6
:101D1800070E0001D16F170ED06F6A0EE82EFED79E
:101D2800D02FFCD7D12FFAD700F09EEF0CF045EF5B
:101D380000F023C03BF024C03CF025C03DF026C095
:101D48003EF027C03FF028C040F029C041F02AC02B
:101D580042F042BEB2EF0EF0B5EF0EF0010EB6EF54
:101D68000EF0000E396E3A6A39503A10D8B4BFEF07
:101D78000EF0C1EF0EF0D1EF0EF0421E411E401ED4
:101D88003F1E3E1E3D1E3C1E3B6C000E3C223D226B
:101D98003E223F224022412242220001D8BFD7EFF3
:101DA8000EF0D9EF0EF0DAEF0EF05892D8BFE7EF49
:101DB8000EF0D85106E1D705D8B0E5EF0EF0E7EF01
:101DC8000EF0EDEF0EF0000E366E010E356EF1EFEF
:101DD8000EF0D7C035F0D8C036F056C037F057C02F
:101DE80038F039503A10D8A4FCEF0EF0FEEF0EF0A0
:101DF80005EF0FF058A403EF0FF005EF0FF008EF11
:101E08000FF03706D8A03806000E446E1F0E436E3A
:101E1800000E0101516F8DEF0FF04306D8A0440664
:101E2800320E4324D96E010E4420DA6E3BC005F011
:101E38003CC006F03DC007F03EC008F03FC009F0C6
:101E480040C00AF041C00BF042C00CF00A0E0D6E03
:101E5800000E0E6E000E0F6E000E106E000E116E4C
:101E6800000E126E000E136E000E146EF1EC14F0DC
:101E780005C02BF006C02CF007C02DF008C02EF0CE
:101E880009C02FF00AC030F00BC031F00CC032F09E
:101E98002BC017F02DC018F066EC18F01750300F53
:101EA800DF6E3506D8A036063706D8A038063BC000
:101EB80005F03CC006F03DC007F03EC008F03FC04A
:101EC80009F040C00AF041C00BF042C00CF00A0E05
:101ED8000D6E000E0E6E000E0F6E000E106E000ED0
:101EE800116E000E126E000E136E000E146E75EC5D
:101EF80013F005C03BF006C03CF007C03DF008C039
:101F08003EF009C03FF00AC040F00BC041F00CC0E1
:101F180042F044BE98EF0FF0445008E14304D8A0C3
:101F280098EF0FF09AEF0FF0CAEF0FF03B503C100C
:101F38003D103E103F10401041104210D8A4A7EFAA
:101F48000FF0A9EF0FF011EF0FF036BEB6EF0FF05C
:101F5800365006E13504D8B0B4EF0FF0B6EF0FF005
:101F680011EF0FF038BEC1EF0FF0385008E1370419
:101F7800D8A0C1EF0FF0C3EF0FF0CAEF0FF058B2BF
:101F8800C8EF0FF0CAEF0FF011EF0FF039503A1009
:101F9800D8A4D1EF0FF0D3EF0FF0DAEF0FF058A479
:101FA800D8EF0FF0DAEF0FF0F8EF0FF04306D8A0F4
:101FB800440639503A10D8A4E4EF0FF0E6EF0FF0DA
:101FC800ECEF0FF0000E346E2B0E336EF0EF0FF0C7
:101FD800000E346E2D0E336E320E4324D96E010E70
:101FE8004420DA6E33C0DFFF21C016F022C017F09C
:101FF800320E4324186E010E4420196E37C01AF0B1
:1020080038C01BF0DCEC16F016C021F017C022F027
:102018001200A1EC18F09594959694989598959A35
:10202800959C8C848C868B888C888C8A8C8C000EF2
:1020380000017F6F000E7E6F000E816F050E806FAE
:10204800000E7D6F000E7C6FEC0E686F000E696FDE
:10205800EF0E6A6FFD0E6B6F1BEC18F0EC0E066E40
:10206800000E076E010E3DEC17F0DB0E0001686FE5
:10207800000E696F110E6A6FFE0E6B6F1BEC18F085
:10208800DB0E066E000E076E020E3DEC17F0D4EF65
:1020980010F07FBF59EF10F07F5109E1060E7E5D09
:1020A800D8A059EF10F05BEF10F06FEF10F0CEEF03
:1020B80010F08C7495EF10F08C7695EF10F08B780B
:1020C80095EF10F08C7895EF10F08C7A95EF10F072
:1020D8008C7C95EF10F07EC07AF07FC07BF07B514E
:1020E800000AD8B47AEF10F095EF10F07A51000A90
:1020F800D8B45DEF10F0010AD8B460EF10F0030A0D
:10210800D8B463EF10F0010AD8B466EF10F0070AEC
:10211800D8B469EF10F0010AD8B46CEF10F095EF5D
:1021280010F080A49AEF10F09CEF10F0B1EF10F0CF
:102138008C948C968B988C988C9A8C9C090E0001A8
:102148007B6F1E0E7A6FE40EE82EFED77A2FFCD72F
:102158007B2FFAD700F066EF11F0030E00017B6FBA
:10216800080E7A6F770EE82EFED77A2FFCD77B2FD2
:10217800FAD700017E4B7F2B7FBFCCEF10F07F5149
:1021880009E1060E7E5DD8A0CCEF10F0CEEF10F07E
:102198006FEF10F07C4B7D2B000E7F6F000E7E6F73
:1021A80000017DBFE1EF10F07D5109E1020E7C5D79
:1021B800D8A0E1EF10F0E3EF10F04DEF10F0000EB3
:1021C8007D6F000E7C6F56EF11F081BFF0EF10F0BD
:1021D800EEEF10F004EF11F050EF11F08C742AEFCD
:1021E80011F08C762AEF11F08B782AEF11F08C78A9
:1021F8002AEF11F08C7A2AEF11F08C7C2AEF11F07B
:1022080080C07AF081C07BF07B51000AD8B40FEF10
:1022180011F02AEF11F07A51000AD8B4F2EF10F059
:10222800010AD8B4F5EF10F0030AD8B4F8EF10F0AB
:10223800010AD8B4FBEF10F0070AD8B4FEEF10F08B
:10224800010AD8B401EF11F02AEF11F080A42FEFA2
:1022580011F031EF11F039EF11F08C948C968B98C6
:102268008C988C9A8C9CA2EF10F0030E00017B6F67
:10227800080E7A6F770EE82EFED77A2FFCD77B2FC1
:10228800FAD700018007D8A0810781BF50EF11F06D
:102298004EEF11F004EF11F0000E816F050E806F04
:1022A8007C4B7D2B7DBF62EF11F07D5109E1020E61
:1022B8007C5DD8A062EF11F064EF11F0E9EF10F047
:1022C80024EF10F0120047C0D9FF48C0DAFFDECF74
:1022D800F6FFDDCFF7FF0800F550250AD8A477EF01
:1022E80011F079EF11F05EEF12F047C0D9FF48C046
:1022F800DAFFDE2A000EDD22000E576E000E566E43
:1023080056C058F057C059F00001D769D86947C07E
:10231800D9FF48C0DAFFDECFF6FFDDCFF7FF0800B0
:10232800F550630AD8A49BEF11F09DEF11F0C4EFAC
:1023380011F047C0D9FF48C0DAFFDE2A000EDD22BF
:1023480049C0D9FF4AC0DAFFDFCF4BF0020EDE26C4
:10235800DFCF4CF0000EDD224BC0D9FF4CC0DAFFB6
:10236800DF50556E45C021F046C022F055C023F01D
:10237800EEEC17F021C045F022C046F079EF12F0DC
:1023880047C0D9FF48C0DAFFDECFF6FFDDCFF7FF41
:102398000800F550640AD8B4D4EF11F0D6EF11F064
:1023A800E8EF11F047C0D9FF48C0DAFFDECFF6FFEB
:1023B800DDCFF7FF0800F550690AD8A4E6EF11F061
:1023C800E8EF11F028EF12F047C0D9FF48C0DAFF54
:1023D800DE2A000EDD2249C0D9FF4AC0DAFFDFCF6E
:1023E8004BF0020EDE26DFCF4CF0000EDD224BC094
:1023F800D9FF4CC0DAFFDECF4DF0DDCF4EF0000E36
:102408004EBEFF0E4F6E506E516E526E536E546E2E
:1024180045C021F046C022F04DC023F04EC024F044
:102428004FC025F050C026F051C027F052C028F008
:1024380053C029F054C02AF09DEC0EF021C045F09D
:1024480022C046F079EF12F047C0D9FF48C0DAFF42
:10245800DECFF6FFDDCFF7FF0800F550250AD8A438
:1024680038EF12F03AEF12F051EF12F047C0D9FFEF
:1024780048C0DAFFDE2A000EDD22000E076E250EA8
:10248800066E45C008F046C009F077EC16F0000E5D
:10249800466E010E456E79EF12F047C0D9FF48C06D
:1024A800DAFFDE2A000EDD22000E466E000E456EB3
:1024B80079EF12F047C0D9FF48C0DAFFDECFF6FF48
:1024C800DDCFF7FF0800F550066E076A45C008F033
:1024D80046C009F077EC16F047C0D9FF48C0DAFFCC
:1024E800DE2A000EDD224BEF12F01200959495962D
:1024F80094989598959A959C8C848C868B888C88D2
:102508008C8A8C8C000E00017D6F000E7C6F000E93
:102518007F6F020E7E6FEC0E686F000E696FEF0E14
:102528006A6FFD0E6B6F1BEC18F0EC0E066E000E5A
:10253800076E010E3DEC17F0DB0E0001686F000E10
:10254800696F110E6A6FFE0E6B6F1BEC18F0DB0ED5
:10255800066E000E076E020E3DEC17F0040E000129
:102568007B6F0C0E7A6F330EE82EFED77A2FFCD7CE
:102578007B2FFAD700D0CDEF12F08B988C98E8EF2C
:1025880012F08C9A8C96E8EF12F08C9C8C94E8EF01
:1025980012F07CC07AF07DC07BF000017B51000A0C
:1025A800D8B4D9EF12F0E8EF12F07A51000AD8B493
:1025B800C1EF12F0010AD8B4C5EF12F0030AD8B47B
:1025C800C9EF12F0E8EF12F080A4EDEF12F0EFEF90
:1025D80012F004EF13F08C948C968B988C988C9A4C
:1025E8008C9C090E00017B6F1E0E7A6FE40EE82E9C
:1025F800FED77A2FFCD77B2FFAD700F074EF13F0B1
:102608007C4B7D2B7DBF12EF13F07D5109E1030E4A
:102618007C5DD8A012EF13F014EF13F0B2EF12F0B4
:102628007FBF1BEF13F019EF13F029EF13F06AEFD8
:1026380013F08B888C8843EF13F08C8A8C8643EFD9
:1026480013F08C8C8C8443EF13F07EC07AF07FC03B
:102658007BF07B51000AD8B434EF13F043EF13F04A
:102668007A51000AD8B41DEF13F0010AD8B421EF4B
:1026780013F0030AD8B425EF13F043EF13F080A446
:1026880048EF13F04AEF13F052EF13F08C948C9646
:102698008B988C988C9A8C9CF5EF12F0040E0001A4
:1026A8007B6F0C0E7A6F330EE82EFED77A2FFCD78D
:1026B8007B2FFAD700D000017E07D8A07F077FBF05
:1026C8006AEF13F068EF13F029EF13F0000E7D6F37
:1026D800000E7C6F000E7F6F050E7E6F8FEF12F07D
:1026E8001200000E166E14BE7EEF13F07CEF13F08E
:1026F80090EF13F0141E131E121E111E101E0F1E33
:102708000E1E0D6C000E0E220F2210221122122214
:1027180013221422010E166E0CBE97EF13F095EFDC
:1027280013F0A9EF13F00C1E0B1E0A1E091E081E3B
:10273800071E061E056C000E062207220822092223
:102748000A220B220C22010E161A20EE17F0070E91
:10275800DE6AE806FDE20D500E100F101010111081
:10276800121013101410D8B4BCEF13F0BEEF13F00E
:1027780010EF14F0010E156ECCEF13F0D8900D3653
:102788000E360F3610361136123613361436152A11
:1027980014AED1EF13F0D3EF13F0C2EF13F0D890CB
:1027A8001736183619361A361B361C361D361E369D
:1027B8000D50055C0E5006580F5007581050085819
:1027C8001150095812500A5813500B5814500C58ED
:1027D800D8A0F1EF13F0F3EF13F004EF14F00D505D
:1027E800055E0E50065A0F50075A1050085A1150DD
:1027F800095A12500A5A13500B5A14500C5A17807F
:10280800D890143213321232113210320F320E3283
:102818000D32152ED3EF13F01650D8B416EF14F06E
:1028280018EF14F028EF14F01E1E1D1E1C1E1B1E90
:102838001A1E191E181E176C000E182219221A22A9
:102848001B221C221D221E2217C005F018C006F0EC
:1028580019C007F01AC008F01BC009F01CC00AF024
:102868001DC00BF01EC00CF01200000E0001A76F77
:10287800010EA66F80A843EF14F045EF14F04AEF5D
:1028880014F0000E0001A76F020EA66F82A04FEF92
:1028980014F051EF14F0B4EF14F0000E0001A76F1C
:1028A800010EA66FB4EF14F0840E686F000E696F06
:1028B800AB0E6A6FFD0E6B6F1BEC18F0840E066E84
:1028C800000E076E010E3DEC17F0950E0001686FC3
:1028D800000E696FBC0E6A6FFD0E6B6F1BEC18F073
:1028E800950E066E000E076E020E3DEC17F080A6E0
:1028F80080EF14F082EF14F0CBEF14F00DEC10F031
:10290800CBEF14F0840E686F000E696F9A0E6A6F31
:10291800FD0E6B6F1BEC18F0840E066E000E076E32
:10292800010E3DEC17F0950E0001686F000E696FFF
:10293800CD0E6A6FFD0E6B6F1BEC18F0950E066ED0
:10294800000E076E020E3DEC17F080A6AEEF14F0F5
:10295800B0EF14F0CBEF14F07AEC12F0CBEF14F0E8
:10296800A6C082F0A7C083F000018351000AD8B442
:10297800C0EF14F0CBEF14F08251010AD8B458EF2D
:1029880014F0030AD8B486EF14F0CBEF14F080A447
:10299800D0EF14F0D2EF14F0E1EF14F00D0E0001B7
:1029A800836F2D0E826FD70EE82EFED7822FFCD7AD
:1029B800832FFAD700D0F0EF14F0070E0001836FD1
:1029C800170E826F6A0EE82EFED7822FFCD7832F50
:1029D800FAD700F03EEF14F01200000E166E0CBE8F
:1029E800FAEF14F0F8EF14F00CEF15F00C1E0B1EB4
:1029F8000A1E091E081E071E061E056C000E06226A
:102A08000722082209220A220B220C22010E166E26
:102A180014BE13EF15F011EF15F023EF15F0141E87
:102A2800131E121E111E101E0F1E0E1E0D6C000E00
:102A38000E220F22102211221222132214220D50CC
:102A48000E100F1010101110121013101410D8B40B
:102A580030EF15F032EF15F07AEF15F0010E156E24
:102A680040EF15F0D8900D360E360F361036113669
:102A7800123613361436152A14AE45EF15F047EF03
:102A880015F036EF15F00D50055C0E5006580F5036
:102A98000758105008581150095812500A58135026
:102AA8000B5814500C58D8A05CEF15F05EEF15F0D9
:102AB8006EEF15F00D50055E0E50065A0F50075A6E
:102AC8001050085A1150095A12500A5A13500B5AEA
:102AD80014500C5AD8901432133212321132103268
:102AE8000F320E320D32152E47EF15F01650D8B4AE
:102AF80080EF15F082EF15F092EF15F00C1E0B1E0B
:102B08000A1E091E081E071E061E056C000E062258
:102B18000722082209220A220B220C2205C005F0EE
:102B280006C006F007C007F008C008F009C009F0A1
:102B38000AC00AF00BC00BF00CC00CF012000F0119
:102B48003B913B9395809582929089806C50F00BD5
:102B580008096C6E130E6E6E6C8A340E066EF20ED9
:102B6800E82EFED7062EFCD76B806BB0BEEF15F0B3
:102B7800C0EF15F0B9EF15F0A49E7C0EFEEC18F02E
:102B8800800EFEEC18F0380EFEEC18F0800EFEEC0D
:102B980018F0390EFEEC18F0800EFEEC18F0170E47
:102BA800FEEC18F0800EFEEC18F07A0EFEEC18F031
:102BB800800EFEEC18F05E0EFEEC18F0800EFEECB7
:102BC80018F06B0EFEEC18F0800EFEEC18F00C0EF0
:102BD800FEEC18F0800EFEEC18F0010EFEEC18F07A
:102BE800800EFEEC18F0060EFEEC18F0800EFEECDF
:102BF80018F0020EFEEC18F06B846BB406EF16F0BA
:102C080008EF16F001EF16F0340E066EF20EE82EFD
:102C1800FED7062EFCD7120086EC17F0A1EC18F0B0
:102C28008C848C868B888C888C8A8C8CEC0E00012A
:102C3800686F000E696F670E6A6FFD0E6B6F1BEC95
:102C480018F0EC0E066E000E076E010E3DEC17F044
:102C5800C282C2B232EF16F034EF16F02DEF16F042
:102C6800D9C07AF0DAC07BF00001D8907B337A3390
:102C7800D8907B337A337AC07CF07BC07DF07CC0FF
:102C8800BEFF520E686F010E696F350E6A6FFB0E3C
:102C98006B6F7CC06CF07DC06DF01BEC18F0520EB1
:102CA800066E010E076E020E3DEC17F080A45FEF72
:102CB80016F061EF16F01AEF16F0B99294848C941E
:102CC8008C968B988C988C9A8C9C090E00017B6F43
:102CD8001E0E7A6FE40EE82EFED77A2FFCD77B2FD4
:102CE800FAD700F0120008500910D8B47EEF16F099
:102CF80080EF16F089EF16F008500910D8A487EF76
:102D080016F089EF16F08EEF16F0065020EC19F049
:102D1800DBEF16F020EE04F00850D9260950DA222D
:102D2800DE50DE10D8B49BEF16F09DEF16F0B8EF2A
:102D380016F020EE04F00850D9260950DA2210EED9
:102D480002F00850E1260950E222DE50E65CE65027
:102D5800800A0E6EDE50800A0E58D8B0B6EF16F014
:102D6800B8EF16F0DBEF16F020EE02F00850D92687
:102D78000950DA22DECF0AF0DDCF0BF008C0D9FF08
:102D880009C0DAFFDECF0CF0DDCF0DF00A500C24BD
:102D9800D96E0B500D20DA6E06C0DFFF20EE02F070
:102DA8000850D9260950DA22DE2A000EDD22120048
:102DB80058A0E1EF16F0E3EF16F0EDEF16F018C0AB
:102DC8000FF019C010F016C011F017C012F044EC43
:102DD80018F01BBEF2EF16F0F4EF16F0FAEF16F04B
:102DE8001AC01FF01BC020F0FEEF16F0000E206E78
:102DF800000E1F6E000E1E6E000E1D6E10EF17F0F7
:102E0800000E076E200E066E16C008F017C009F0F7
:102E180077EC16F01D4A1E2A1F501D5C1E50800AB2
:102E28001C6E2050800A1C58D8A01DEF17F01FEF09
:102E380017F004EF17F058B024EF17F026EF17F04B
:102E480030EF17F018C00FF019C010F016C011F0CD
:102E580017C012F044EC18F018C005F019C006F0BD
:102E680086EC18F01F500524166E20500620176EA9
:102E78001200086E6B806BB044EF17F046EF17F046
:102E88003FEF17F0A49E7C0EFEEC18F0800EFEECCF
:102E980018F00804D8A453EF17F055EF17F05AEFBD
:102EA80017F0800EFEEC18F066EF17F0020E081807
:102EB800D8A461EF17F063EF17F066EF17F0C00EB4
:102EC800FEEC18F0400EFEEC18F0000E096E0950EA
:102ED8000624D96E000E0720DA6EDF50FEEC18F0DB
:102EE800092A0F0E09647BEF17F07DEF17F06BEFDF
:102EF80017F06B846BB483EF17F085EF17F07EEF54
:102F080017F01200830E956E9498958A9484B98070
:102F1800B982FC0E0F014917C70EBB6E3F0EBD16D6
:102F2800BD50F00B0D09BD6E000EBE6EFC0EBA163C
:102F38009E92BA849EA2A3EF17F0A5EF17F09EEF1A
:102F480017F0959A9494010E0F013C6FC08EC050F3
:102F5800F80B0609C06EC050C70B3009C06EC2809E
:102F6800C250830B1409C26E9E9C9D8CF28CF28E0B
:102F7800120062C066F063C067F0000E0001D66FF1
:102F8800000ED56FDBEF17F060C045F061C046F06A
:102F9800660E476E000E486E64C049F065C04AF080
:102FA80067EC11F045500001D5274650D62366C07E
:102FB800F6FF67C0F7FF0800F5500009D8A4E7EF4F
:102FC80017F0E9EF17F0C8EF17F0D5C060F0D6C0DA
:102FD80061F0120056505710D8A4F5EF17F0F7EF2C
:102FE80017F0FDEF17F056C024F057C025F003EF97
:102FF80018F0FF0E5624246EFF0E5720256E23C0AE
:1030080032F1000E0101336F21C016F022C017F013
:10301800320E186E010E196E24C01AF025C01BF06E
:10302800DCEC16F016C021F017C022F012006C0E6E
:103038000001726F000E736F68C074F069C075F09C
:10304800000E776F000E766F000E796F000E786FA6
:10305800740E606F000E616F6AC062F06BC063F03F
:10306800720E646F000E656FBDEC17F000017651AB
:103078006825D96E77516921DA6E000EDF6E12006D
:10308800000E156E000E146E55EF18F013C006F002
:10309800076A11C008F012C009F077EC16F0144A5C
:1030A800152A14500F24D96E15501020DA6EDF50EF
:1030B800136E1350D8A463EF18F065EF18F04AEFB9
:1030C80018F0120018BE73EF18F0185006E1170434
:1030D800D8B071EF18F073EF18F081EF18F017C03F
:1030E80019F018C01AF0191E1A1E194A1A2A19C0FE
:1030F80017F01AC018F085EF18F017C017F018C0AD
:1031080018F0120005C007F006C008F08EEF18F09E
:10311800054A062A05C0D9FF06C0DAFFDF50D8A441
:1031280098EF18F09AEF18F08CEF18F00750055C3C
:10313800056E08500658066E12006B806BB0A7EF3C
:1031480018F0A9EF18F0A2EF18F0A49E7C0EFEEC80
:1031580018F0800EFEEC18F0010EFEEC18F06B84EF
:103168006BB4B9EF18F0BBEF18F0B4EF18F0120019
:1031780001EE00F0630EEE6AE806FDE100EED2F023
:103188002B0EEE6AE806FDE1596A586A576A566AD4
:103198005A905A92000EF86E000197EF0CF00F014A
:1031A800388B010E3C6FC08EC050F80B0609C06EFC
:1031B800C050C70B3009C06EC280C250830B1409BF
:1031C800C26E9E9CF28C9D8CF28E12006A0E0001DB
:1031D8006C6F000E6D6F000E606F000E616F68C03F
:1031E80062F069C063F06C0E646F000E656FBDEC31
:1031F80017F01200056E05C06FFF6DB006EF19F0ED
:1032080008EF19F001EF19F0A4AE0DEF19F00FEF68
:1032180019F008EF19F0A49E1200F28CF28E9D8A24
:10322800000E0F013A6F948C948E330EAF6EAB8EF6
:10323800AC98AC8AAB881200056E9EA826EF19F0F0
:1032480028EF19F021EF19F005C0ADFF1200A3EC2B
:1032580015F09480928492869288000E0F01386F40
:0C3268001200948092840F01389512002F
:10FB120000456E746572206F6E6C792076616C6937
:10FB2200642063686172616374657273203A290AA2
:10FB32000A0A0044757479203D2025642020202083
:10FB42002020202020202020200025636F2020203C
:10FB52002020202020202020202025630025632033
:10FB62006F2020202020202020202020202563001C
:10FB7200256320206F2020202020202020202020EC
:10FB820025630025632020206F20202020202020B4
:10FB92002020202563002563202020206F202020A4
:10FBA20020202020202025630025632020202020E3
:10FBB2006F20202020202020202563002563202084
:10FBC200202020206F2020202020202025630025B7
:10FBD20063202020202020206F202020202020258C
:10FBE2006300256320202020202020206F20202059
:10FBF2002020256300256320202020202020202093
:10FC02006F20202020256300256320202020202033
:10FC1200202020206F202020256300256320202023
:10FC220020202020202020206F2020256300256313
:10FC32002020202020202020202020206F2025632B
:10FC4200002563202020202020202020202020208A
:10FC52006F25630056414C5545203D2025642020E8
:10FC62002020202020004F20202020202020202083
:10FC7200202020202020004F4F2020202020202044
:10FC820020202020202020004F4F4F202020202005
:10FC92002020202020202020004F4F4F4F202020C6
:10FCA200202020202020202020004F4F4F4F4F2087
:10FCB20020202020202020202020004F4F4F4F4F77
:10FCC2004F20202020202020202020004F4F4F4F67
:10FCD2004F4F4F202020202020202020004F4F4F28
:10FCE2004F4F4F4F4F2020202020202020004F4FE9
:10FCF2004F4F4F4F4F4F4F20202020202020004FAA
:10FD02004F4F4F4F4F4F4F4F4F202020202020006A
:10FD120020204261726772617068202020202020BA
:10FD2200002A2042617267726170682020202020C0
:10FD320020004F4F4F4F4F4F4F4F4F4F4F202020DC
:10FD420020200020204D6F7273656F766B6120203A
:10FD5200202020002A204D6F7273656F766B612020
:10FD62002020202000504D5720436F6E74726F6C1C
:10FD7200202020202000202050574D206D6F746FCE
:10FD8200722020202020002A2050574D206D6F74B1
:10FD92006F7220202020200020204D6F64656C208F
:10FDA2003230303020202020002A204D6F64656CD4
:10FDB2002032303030202020200020204D6F64651A
:10FDC2006C203330303020202020002A204D6F64F8
:10FDD200656C203330303020202020004F4F4F4FB1
:10FDE2004F4F4F4F4F4F4F4F20202020004B6E69F7
:10FDF20067687420526964657220202020002020E8
:10FE02002047414D45204F56455221202020004F8A
:10FE12006E20746865207761792E2E2E20202000B6
:10FE22004F4F4F4F4F4F4F4F4F4F4F4F4F2020206D
:10FE3200007472616E736C6174696E672E2E2E206F
:10FE420020004F4F4F4F4F4F4F4F4F4F4F4F4F4F3E
:10FE520020200020204B6E69676874205269646517
:10FE6200722020002A204B6E6967687420526964F0
:10FE720065722020004F4F4F4F4F4F4F4F4F4F4F04
:10FE82004F4F4F4F20005031202A2A2A2020202075
:10FE92002A2A2A205032004F4F4F4F4F4F4F4F4F79
:10FEA2004F4F4F4F4F4F4F002020506F6E672D32F4
:10FEB20020504C4159455253002A20506F6E672DF5
:10FEC2003220504C4159455253004D6F7273652098
:10FED2007472616E736C61746F7200202E202D201B
:10FEE2002E202D202E202D202E207C0020504C4113
:10FEF20059455220312057494E53200020504C4141
:10FF020059455220322057494E532000202D202D92
:10FF1200202E202E202D202D207C00202E202E2051
:10FF22002D202D202E202E207C00202D202D202D36
:10FF3200202D202D207C00202E202D202D202D2034
:10FF42002D207C00202E202E202D202D202D207CC7
:10FF520000202E202E202E202D202D207C00202D32
:10FF6200202D202E202E202D207C00202E202E2001
:10FF72002E202E202D207C00202D202D202D202DE6
:10FF8200202E207C00202D202D202D202E202E20E2
:10FF92007C00202D202D202E202E202E207C0020A3
:10FFA2002D202E202E202E202E207C00202E202EB2
:10FFB200202E202E202E207C000A5052454B4C41F0
:10FFC200443A202000202D202E202D202D207C00A0
:10FFD200202D202D202E202D207C00202E202D2093
:10FFE2002D202E207C00202E202E202D202E207C25
:0DFFF20000202E202D202E202E207C00002F
:020000040020DA
:08000000FFFFFFFFFFFFFFFF00
:020000040030CA
:0E000000FF331F3CFFBF85FF0FC00FE00F4016
:00000001FF
